:040000008031212802
:100008007E1480310B1F1F282100111E1428200088
:10001800111E142846088A0045080A0080311F2846
:100028002100911E1F282000911E1F2844088A00C5
:1000380043080A0080317E10090080312328FB0123
:1000480020308400003085001D30813161217E1010
:10005800200080319F28210091126D30F10000307E
:10006800F20081316D21803121001112E930F10057
:100078000030F200813167218031083023009F0071
:1000880090309D0024309E000C309B009C019730DE
:10009800F1000130F2008131792180318E30F10098
:1000A8000130F2008131732180319230F10001304A
:1000B800F20081317F212000B801BC01BB0108306A
:1000C800F3007308C700FB01BA01B90121009116BA
:1000D80008007B08203E86008701810123001D1D42
:1000E80080287B08203E8600870181142000420872
:1000F8008A0041080A00803123009D1C8E287B0855
:10010800203E860087010115200040088A003F082C
:100118000A0080317B08203E860087010108031908
:100128009C2820003E088A003D080A00803108000B
:1001380081312121080081314E2180318B170B1725
:1001480022008C1411302000C8003A30890BAA28EC
:10015800C80BAA28000022008C1002302000C90019
:100168004530C800A930890BB728C80BB728C90B78
:10017800B72800329530F4008130F500813106212E
:100188008031A428F200200047080319C72821005D
:10019800111AD228720823009A00E6281112720850
:1001A800F10020003C08303E86008701710881007C
:1001B8000130F1007108BC0708303C020318BC018B
:1001C8000130C7022100111608000830200047023C
:1001D800031803293B08303E8600870101082300E5
:1001E8009A000130F00070082000BB0708303B027D
:1001F8000318BB010130F0007008C7070800210090
:10020800111208007630F6007608F9007508F70034
:100218007408F600F40A0319F50A760884007708CA
:1002280085000008F8007808FA007A080319080021
:100238007A088131852181310A2923001908F000C3
:100248007B08283E86008701700881000130F00095
:100258007008FB0708307B020318FB010130F0002F
:1002680070082000B907080022008C018D01FD30BC
:1002780021008C00FF308D00F83023008D001F30E6
:100288008C0024008D018C012100951722009D010E
:100298009E01080081313821813181315A21813113
:1002A80081318A21813180312F20080038302100A6
:1002B800990098012200960108006400800101312C
:1002C800890B6229003472082000C6007108C50035
:1002D800080072082000C4007108C30008007208F2
:1002E8002000C0007108BF00080072082000C2008A
:1002F8007108C100080072082000BE007108BD0026
:100308000800F30073088031C62008001630210069
:100318009700080023001D121D16080081312121B5
:080328000800683400340800ED
:020000040001F9
:04000E00E4FFFFFE0E
:00000001FF
